:10000000ACEF01F0000000008CEF01F000000000F8
:0C001000000000000000000073EF01F091
:10001C000134083609360450085E0550D8A0053C5A
:10002C00095E003601360F0E0C6E013408360936A7
:10003C00045000A006D0085E0550D8A0053C095E0F
:10004C0005D008260550D8B0053C092600360136E7
:10005C000C2EEBD700B006D0045008260550D8B0B3
:08006C00053C0926000012000A
:100074000450000A08E10550000A05E1FF0E006E75
:100084007F0E016E57D00D6A096A086A015000108C
:10009400D8B4000C015005180A6E0ABE0D1E0B6A76
:1000A40005AE05D0041E051E042AD8B4052A01AEE7
:1000B40005D0001E011E002AD8B4012A01500510E3
:1000C4000A6E0ABE10D0A8DF0BB020D00DAE000C13
:1000D400001E011E002AD8B4012A081E091E082A7F
:1000E400D8B4092A000C05AE0DD001BE07D00150CA
:1000F400096E0050086E016A006AE8D7016A006A56
:10010400002A000C011E001E0B2ADDD7082AD8B4D1
:10011400092A0450085CD8A4D9D70550095CD8A48E
:10012400D5D7096A086A002AD8B4012A01AECED705
:060134000000FF0C1200A8
:04013A008C6A1200B9
:10013E0037D03F0E016E000E026E6FD0060E016EAE
:10014E00000E026E6AD05B0E016E000E026E65D05E
:10015E004F0E016E000E026E60D0660E016E000E26
:10016E00026E5BD06D0E016E000E026E56D07D0ECD
:10017E00016E000E026E51D0070E016E000E026E61
:10018E004CD07F0E016E000E026E47D06F0E016EC8
:10019E00000E026E42D0790E016E000E026E3DD040
:1001AE00000E1E1802E1000E1D18C3E0000E1E18F0
:1001BE0002E1010E1D18C2E0000E1E1802E1020E31
:1001CE001D18C1E0000E1E1802E1030E1D18C0E03E
:1001DE00000E1E1802E1040E1D18BFE0000E1E18C0
:1001EE0002E1050E1D18BEE0000E1E1802E1060EFD
:1001FE001D18BDE0000E1E1802E1070E1D18BCE012
:10020E00000E1E1802E1080E1D18BBE0000E1E188F
:10021E0002E1090E1D18BAE0BED701C08CFF120014
:10022E0022C000F0000E22BEFF0E016E00C0D7FFEE
:08023E0021C0D6FFF29412006A
:0A02460025C021F026C022F01200AE
:100250000900F5CFE6FF0006FBE10106F9E1120017
:0A02600023C021F024C022F0120098
:06026A00E1DFD58E120059
:0402700066DF120033
:0A027400956A1D6A1E6A5FDF120022
:10027E00010E1D24006E000E1E20016E0A0E046E6D
:10028E00000E056EF0DE08C000F009C001F000C0DF
:0A029E001DF001C01EF04CDF12003D
:1002A8000F0EC112D08EF18CF18AF08CF292F09080
:0A02B800F288F086F28CF28E12003C
:1002C200040ED56EF294F194F28AF70E236EC20EEA
:1002D200246EDC0E256E0B0E266EDC0E216E0B0ECE
:0402E200226E120076
:1002E60000C019F001C018F0156ED8CF16F0E0CF97
:1002F60017F0F2A403D0C0DF97DFF2941750E06E38
:100306001650D86E153A153819C000F018C001F00D
:020316001000D5
:1003180000C01CF001C01BF002C01AF0F2A203D00A
:100328008EDFF29204D0F0A002D096DFF0907BDF4F
:100338001F50201006E198DF94DF010E1F6E000E9B
:10034800206E1CC000F01BC001F01AC002F01100A2
:10035800FF0E1D6EFF0E1E6E1F6A206A216A226A3A
:10036800236A246A256A266AA8DF80DF99DFFFD717
:020000040030CA
:0E000000000C1F1EFF8381FF0FC00FE00F409A
:00000001FF
